:020000040800F2
:10000000E8C8002045030008A5030008A503000870
:10001000A5030008A5030008A503000800000000D0
:10002000000000000000000000000000A503000820
:10003000A503000800000000A50300083501000822
:10004000A5030008A5030008A5030008A5030008F0
:10005000A5030008A5030008A5030008A5030008E0
:10006000A5030008A5030008A5030008A5030008D0
:10007000A5030008A5030008A5030008A5030008C0
:10008000A5030008A5030008A5030008A5030008B0
:10009000A5030008A5030008A5030008A5030008A0
:1000A000A5030008A5030008A5030008A503000890
:1000B000A5030008A5030008A5030008A503000880
:1000C000A5030008A5030008A5030008A503000870
:1000D000A5030008A5030008A5030008A503000860
:1000E000A5030008A5030008A5030008A503000850
:1000F000A5030008A5030008A5030008A503000840
:10010000A5030008A5030008A5030008A50300082F
:10011000A5030008A5030008A5030008A50300081F
:10012000A5030008A5030008A5030008A50300080F
:100130005FF808F180B400AF064B1B68002B04D0B9
:10014000044B1B685A1E034B1A60BD465DF8047BC6
:10015000704700BF0000002080B596B000AF0223BA
:100160003B6000237B600523BB600023FB60002312
:100170003B6100237B614FF08053BB610023FB6137
:1001800000233B6208237B621023BB620023FB62D7
:1001900000237B630023BB630023FB634FF4805386
:1001A0003B6400237B640023BB640023FB643B4669
:1001B0003B653B467B6507F11C03184600F0F6F8EB
:1001C0000020012100F08CF95837BD4680BD00BFEA
:1001D00080B500AF154B154A126842F001021A6053
:1001E000124A124B5968124B0B4053600F4A0F4B87
:1001F0001B6823F0847323F4803313600B4B0B4A8A
:10020000126822F480221A60084B084A526822F4CD
:10021000FE025A60054B4FF41F029A6000F00CF882
:10022000044B4FF000629A6080BD00BF0010024096
:100230000000FFF800ED00E080B500AF00F002F82C
:1002400080BD00BF80B483B000AF00237B6000237B
:100250003B603A4B394A126842F480321A60374B9D
:100260001B6803F400333B607B6801337B603B68B1
:10027000002B03D17B68B3F5A06FF0D12F4B1B6827
:1002800003F40033002B02D001233B6001E0002384
:100290003B603B68012B4BD1294B294A126842F045
:1002A00010021A60264B264A126822F003021A60D6
:1002B000234B234A126842F002021A601F4B1F4A66
:1002C00052685A601D4B1D4A52685A601B4B1B4AAC
:1002D000526842F480625A60184B184A526822F4FD
:1002E0007C125A60154B154A526842F4E8125A6063
:1002F000124B124A126842F080721A6000BF0F4B14
:100300001B6803F00073002BF9D00C4B0B4A5268AA
:1003100022F003025A60094B084A526842F0020276
:100320005A6000BF054B5B6803F00C03082BF9D142
:100330000C37BD465DF8047B704700BF00100240DB
:100340000020024080B582B000AF114B7B60114BA2
:100350003B6007E03B681A1D3A607A68111D7960BE
:1003600012681A603A680C4B9A42F3D30B480C4956
:100370004FF000028842B8BF40F8042BFFF6FAAFF6
:10038000FFF726FF00F0AEF90837BD4680BD00BF7D
:1003900030120008000000200000002000000020B3
:1003A000E8C4002080B400AFFEE700BF80B483B093
:1003B00000AF78604FF020437A6812687968486827
:1003C0007968896808437968C96808437968096960
:1003D00008437968496908437968896908437968F5
:1003E000C96908437968096A08437968496A084312
:1003F0007968896A08437968C96A08437968096B2A
:10040000014343F822107B689B68082B0DD14FF005
:1004100020437A6812684FF020417868006851F8EC
:10042000201041F0400143F822104FF020437A6839
:10043000126801327968496B08687968496B4968C4
:10044000090108437968496B89680902084379689A
:10045000496BC968090408437968496B096909054A
:1004600008437968496B4969090608437968496B0B
:100470008969014343F822107B68DB6AB3F5804F3A
:1004800020D1164B7A6812687968896B0868796898
:10049000896B4968090108437968896B8968090291
:1004A00008437968896B0969090508437968896B8C
:1004B0004969090608437968896B8969014343F8EA
:1004C000221006E0054B7A6812686FF0704143F81D
:1004D00022100C37BD465DF8047B7047040100A074
:1004E00080B483B000AF78600B46FB70FB78002BC4
:1004F0000CD04FF020434FF02042796852F8212071
:1005000042F001017A6843F822100BE04FF02042DC
:100510004FF02043796853F82110054B0B40796860
:1005200042F821300C37BD465DF8047B704700BFB0
:10053000FEFF0F0080B489B000AF786039600023FF
:10054000FB6100233B610023BB610023FB600023B0
:100550007B610023BB603B68DB7803F00F03FB612A
:100560003B68DB7803F01003002B04D03B689B78DA
:10057000FA691343FB613B681B88DBB2002B44D054
:100580007B681B687B610023BB6138E0BB6901228B
:1005900002FA03F3FB603B681B881A46FB681340B2
:1005A0003B613A69FB689A4226D1BB699B00FB60BC
:1005B000FB680F2202FA03F3BB60BB68DB437A6976
:1005C00013407B61FB68FA6902FA03F37A6913430B
:1005D0007B613B68DB78282B05D1BB6901229A40FF
:1005E0007B685A6108E03B68DB78482B04D1BB6923
:1005F00001229A407B681A61BB690133BB61BB6908
:10060000072BC3D97B687A691A603B681B88FF2B6C
:1006100046D97B685B687B610023BB613AE0BB69BC
:100620000833012202FA03F3FB603B681B881A4679
:10063000FB6813403B613A69FB689A4227D1BB696A
:100640009B00FB60FB680F2202FA03F3BB60BB68F0
:10065000DB437A6913407B61FB68FA6902FA03F3B2
:100660007A6913437B613B68DB78282B05D1BB6932
:10067000083301229A407B685A613B68DB78482B3B
:1006800005D1BB69083301229A407B681A61BB69B6
:100690000133BB61BB69072BC1D97B687A695A609A
:1006A0002437BD465DF8047B704700BF80B483B03B
:1006B00000AF78600B467B807A887B681A610C37C4
:1006C000BD465DF8047B704780B483B000AF7860AE
:1006D0000B467B807A887B685A610C37BD465DF893
:1006E000047B7047B0B5B0B002AFFFF735FD00F046
:1006F000C3F800F0CDF800F04FF9414B07F16C045E
:100700001D460FCD0FC40FCD0FC40FCD0FC495E8FC
:100710000F0084E80F0001233B7508237B755A23E3
:10072000BB614623FB611F233B85002387F8B7305D
:1007300017E097F8B72097F8B7300332D20007F1E7
:10074000B8010A44DB0007F1B8010B44A43A4C3B62
:1007500093E8030082E8030097F8B730013387F885
:10076000B73097F8B730072BE3D9264A07F10C03C7
:1007700092E8030083E80300234A3B1D92E803004C
:1007800083E803000523C7F8B0300623C7F8AC3070
:1007900000F094FCFB68A02B02DCFB68042B04DC5B
:1007A000D7F8B0305B42C7F8B0303B69782B05DD35
:1007B000D7F8AC305B42C7F8AC3007E03B69042B9C
:1007C00004DCD7F8AC305B42C7F8AC30FA68D7F835
:1007D000B0301344FB603A69D7F8AC3013443B6146
:1007E000FB689AB23B699BB24FF6FF7100911046CD
:1007F00019460A220A2300F039FC00F079FCC7E709
:10080000E0110008201200082812000880B483B00C
:1008100000AF02460B46FA71BB804FF0C043FA7935
:1008200092B21A80034BBA881A800C37BD465DF825
:10083000047B70470000026080B485B000AF0346BF
:10084000FB800023FB810DE00023BB8102E0BB891C
:100850000133BB81BA8940F274439A42F7D9FB89CC
:100860000133FB81FA89FB889A42EDD31437BD46E8
:100870005DF8047B704700BF80B500AF4FF4807017
:10088000012100F06BFC7D20012100F085FC80BD82
:1008900080B582B000AF4023BB801023FB710323DF
:1008A000BB713B1D2E481946FFF744FE42F2480338
:1008B000BB803B1D2B481946FFF73CFE0123BB8044
:1008C0003B1D29481946FFF735FE0223BB803B1D1F
:1008D00025481946FFF72EFE4CF23373BB800323E5
:1008E000BB711823FB713B1D1E481946FFF722FE02
:1008F0004FF68073BB803B1D1B481946FFF71AFE5D
:100900008023BB803B1D17481946FFF713FE4FF4A9
:100910000063BB803B1D13481946FFF70BFE1148CF
:100920008021FFF7C3FE0F484CF20301FFF7BEFE24
:100930000D484FF4F061FFF7B9FE0B480121FFF7B6
:10094000C3FE09480221FFF7BFFE06481021FFF74A
:10095000ADFE04482021FFF7A9FE0837BD4680BD43
:1009600000100140001401400018014080B483B021
:1009700000AF0346FB714FF0C043FA7992B21A8080
:10098000044B1B889BB218460C37BD465DF8047BB0
:10099000704700BF0000026080B582B000AF002049
:1009A000FFF7E4FF03461A46D04B1A6000200121EE
:1009B00000F008FBCD4B49F225321A6000F018FB1D
:1009C000CA4B1A6849F225339A4240F0D780C820B2
:1009D00000F024FB0020012100F0F4FAC82000F010
:1009E0001DFB00F005FBC82000F018FB00200121D2
:1009F00000F0E8FA0A2000F011FB1520302100F089
:100A0000E1FA1120402100F0DDFA102041F22861C6
:100A100000F0D8FA1220002100F0D4FA132041F29D
:100A20004D0100F0CFFA0A2000F0F8FA1220102150
:100A300000F0C8FA0A2000F0F1FA102042F220611A
:100A400000F0C0FA132043F24D4100F0BBFA0A2037
:100A500000F0E4FA01204FF4807100F0B3FA0220B4
:100A60004FF4407100F0AEFA032041F2300100F083
:100A7000A9FA082040F2046100F0A4FA092000213C
:100A800000F0A0FA0A20082100F09CFA412002217F
:100A900000F098FA60204FF41C5100F093FA6120A6
:100AA000012100F08FFA90204FF4C17100F08AFA12
:100AB0009320012100F086FAA320102100F082FA91
:100AC0000A2000F0ABFA3020002100F07BFA312040
:100AD00040F2025100F076FA322040F2073100F085
:100AE00071FA332040F2053100F06CFA3420042111
:100AF00000F068FA352040F2024100F063FA362037
:100B000040F2077100F05EFA372040F2035100F026
:100B100059FA382041F2055100F054FA392041F2D7
:100B2000055100F04FFA0A2000F078FA0720012161
:100B300000F048FA0A2000F071FA0720212100F0A5
:100B400041FA0720232100F03DFA0A2000F066FA5E
:100B50000720332100F036FA0A2000F05FFA072060
:100B600040F2331100F02EFA2020002100F02AFA82
:100B7000212040F23F1100F025FAEFE15B4B1A68AB
:100B800049F220339A4205D0584B1B68B3F5134FF6
:100B900040F0AE8000200021FFF738FE01204FF426
:100BA0008071FFF733FE02204FF4E061FFF72EFE65
:100BB000032041F21801FFF729FE04200021FFF76E
:100BC00025FE082040F20221FFF720FE0920002127
:100BD000FFF71CFE0A200021FFF718FE0C20012160
:100BE000FFF714FE0D200021FFF710FE0F2000215B
:100BF000FFF70CFE6420FFF71FFE072040F20111F3
:100C0000FFF704FE6420FFF717FE10204FF4865113
:100C1000FFF7FCFD11200721FFF7F8FD12204FF42C
:100C20008871FFF7F3FD13204FF43061FFF7EEFDFD
:100C300029200021FFF7EAFD2B2044F21001FFF7E5
:100C4000E5FD50200021FFF7E1FD5120EF21FFF7E6
:100C5000DDFD52200021FFF7D9FD532040F23F1166
:100C6000FFF7D4FD60204FF41C51FFF7CFFD61204A
:100C70000121FFF7CBFD6A200021FFF7C7FD80208F
:100C80000021FFF7C3FD81200021FFF7BFFD822077
:100C90000021FFF7BBFD83200021FFF7B7FD842073
:100CA0000021FFF7B3FD85200021FFF7AFFD902065
:100CB0001021FFF7ABFD92200021FFF7A7FD932045
:100CC0000121FFF7A3FD95204FF48871FFF79EFDEA
:100CD00097200021FFF79AFD98200021FFF796FD4D
:100CE000072040F27311FFF791FD37E10400002067
:100CF000A44B1A6848F689139A4240F02F810020CD
:100D00000121FFF783FD3220FFF796FD03204AF60D
:100D1000A401FFF77BFD3220FFF78EFD0C200021A0
:100D2000FFF774FD3220FFF787FD0D2040F60C0120
:100D3000FFF76CFD3220FFF77FFD0E204FF42C51A2
:100D4000FFF764FD3220FFF777FD1E20B021FFF78B
:100D50005DFD3220FFF770FD012042F63F31FFF7C5
:100D600055FD3220FFF768FD02204FF4C061FFF708
:100D70004DFD3220FFF760FD10200021FFF746FDFA
:100D80003220FFF759FD112046F27001FFF73EFDBA
:100D90003220FFF751FD05200021FFF737FD3220FB
:100DA000FFF74AFD06200021FFF730FD3220FFF754
:100DB00043FD16204EF61C71FFF728FD3220FFF789
:100DC0003BFD17200321FFF721FD3220FFF734FD03
:100DD000072040F23311FFF719FD3220FFF72CFDF9
:100DE0000B200021FFF712FD3220FFF725FD0F2019
:100DF0000021FFF70BFD3220FFF71EFD41200021EF
:100E0000FFF704FD3220FFF717FD42200021FFF716
:100E1000FDFC3220FFF710FD48200021FFF7F6FC13
:100E20003220FFF709FD492040F23F11FFF7EEFCA9
:100E30003220FFF701FD4A200021FFF7E7FC3220B6
:100E4000FFF7FAFC4B200021FFF7E0FC3220FFF710
:100E5000F3FC44204FF46F41FFF7D8FC3220FFF73A
:100E6000EBFC45200021FFF7D1FC3220FFF7E4FC2A
:100E7000462040F23F11FFF7C9FC3220FFF7DCFCAF
:100E8000302040F20771FFF7C1FC3220FFF7D4FC9D
:100E900031204FF40171FFF7B9FC3220FFF7CCFC91
:100EA00032204FF40171FFF7B1FC3220FFF7C4FC90
:100EB000332040F20251FFF7A9FC3220FFF7BCFCBF
:100EC000342040F20751FFF7A1FC3220FFF7B4FCB9
:100ED00035204FF40171FFF799FC3220FFF7ACFC8D
:100EE00036204FF40171FFF791FC3220FFF7A4FC8C
:100EF000372040F20251FFF789FC3220FFF79CFCBB
:100F00003A2040F20231FFF781FC3220FFF794FCD7
:100F10003B2040F20231FFF779FC3220FFF78CFCD6
:100F200023200021FFF772FC3220FFF785FC2420EC
:100F30000021FFF76BFC3220FFF77EFC25204FF4E9
:100F40000041FFF763FC3220FFF776FC4F200021C1
:100F5000FFF75CFC4E200021FFF758FC4FF0C04328
:100F600022221A8000237B6005E0002000F01AF89E
:100F70007B6801337B607B68B3F5963FF5D3083718
:100F8000BD4680BD0400002080B483B000AF78600F
:100F90004FF0C0437A6892B21A800C37BD465DF8B4
:100FA000047B704780B483B000AF7860044B7A68EC
:100FB00092B21A800C37BD465DF8047B704700BFC3
:100FC0000000026080B483B000AF786039604FF0F9
:100FD000C0437A6892B21A80044B3A6892B21A807F
:100FE0000C37BD465DF8047B704700BF000002600F
:100FF00080B500AF07480221FFF766FB064800F006
:101000000DF804480221FFF751FB034800F006F8F1
:1010100080BD00BF00180140FFFFAF0080B483B067
:1010200000AF786002E07B68013B7B607B68002B4F
:10103000F9D10C37BD465DF8047B704780B485B0AC
:1010400000AFF860B9601346FB80BB68B42202FBB6
:1010500003F2FB681A44044BF98823F81210143782
:10106000BD465DF8047B70470800002080B584B061
:1010700000AFF880B9807A803B80BB88FB6014E0C9
:10108000FB88BB6008E03B8BB868F9681A46FFF73D
:10109000D5FFBB680133BB60FA883B881A44BB6844
:1010A0009A42F0DCFB680133FB60BA887B881A4403
:1010B000FB689A42E4DC1037BD4680BD80B483B043
:1010C00000AF0023FB8007E0FA88084B002123F8DB
:1010D0001210FB880133FB80FA8846F26F239A4294
:1010E000F2D90C37BD465DF8047B7047080000203C
:1010F00080B582B000AF20200021FFF763FF2120E0
:101100000021FFF75FFF50200021FFF75BFF512018
:10111000B321FFF757FF52200021FFF753FF532061
:101120008B21FFF74FFF2220FFF72EFF00237B606C
:1011300008E0084B084A796832F811201A807B6869
:1011400001337B607A6846F26F239A42F1DD0837FB
:10115000BD4680BD000002600800002080B483B05E
:1011600000AF78600B46FB70FB78002B06D0094B74
:10117000084A51697A680A435A6106E0054B054AF4
:1011800051697A68D2430A405A610C37BD465DF80E
:10119000047B70470010024080B483B000AF7860D9
:1011A0000B46FB70FB78002B06D0094B084A91696F
:1011B0007A680A439A6106E0054B054A91697A68A4
:1011C000D2430A409A610C37BD465DF8047B7047F4
:1011D000001002402020256C75206670730000000E
:1011E00000000442000040C000001041000090C117
:1011F000000040C1000010C10000A8C1000040C1B3
:10120000000010C10000C040000070C1000070412B
:10121000000040C00000D8410000A8410000A841E3
:1012200032000000320000001400000064000000E2
:0400000508000000EF
:00000001FF
